{"contracts/ArtixRanking.sol":{"ArtifactRanking":{"abi":[{"inputs":[],"name":"InvalidInitialization","type":"error"},{"inputs":[],"name":"NotInitializing","type":"error"},{"inputs":[{"internalType":"address","name":"owner","type":"address"}],"name":"OwnableInvalidOwner","type":"error"},{"inputs":[{"internalType":"address","name":"account","type":"address"}],"name":"OwnableUnauthorizedAccount","type":"error"},{"anonymous":false,"inputs":[{"indexed":false,"internalType":"uint64","name":"version","type":"uint64"}],"name":"Initialized","type":"event"},{"anonymous":false,"inputs":[{"indexed":true,"internalType":"address","name":"previousOwner","type":"address"},{"indexed":true,"internalType":"address","name":"newOwner","type":"address"}],"name":"OwnershipTransferred","type":"event"},{"anonymous":false,"inputs":[{"indexed":true,"internalType":"address","name":"user","type":"address"},{"indexed":false,"internalType":"enum ArtifactRanking.RankLevel","name":"previousRank","type":"uint8"},{"indexed":false,"internalType":"enum ArtifactRanking.RankLevel","name":"newRank","type":"uint8"}],"name":"RankUpdated","type":"event"},{"inputs":[{"internalType":"uint256","name":"totalVotes","type":"uint256"}],"name":"calculateRankLevel","outputs":[{"internalType":"enum ArtifactRanking.RankLevel","name":"","type":"uint8"}],"stateMutability":"view","type":"function"},{"inputs":[],"name":"initialize","outputs":[],"stateMutability":"nonpayable","type":"function"},{"inputs":[],"name":"owner","outputs":[{"internalType":"address","name":"","type":"address"}],"stateMutability":"view","type":"function"},{"inputs":[{"internalType":"enum ArtifactRanking.RankLevel","name":"","type":"uint8"}],"name":"rankThresholds","outputs":[{"internalType":"uint256","name":"","type":"uint256"}],"stateMutability":"view","type":"function"},{"inputs":[],"name":"renounceOwnership","outputs":[],"stateMutability":"nonpayable","type":"function"},{"inputs":[{"internalType":"address","name":"newOwner","type":"address"}],"name":"transferOwnership","outputs":[],"stateMutability":"nonpayable","type":"function"},{"inputs":[{"internalType":"address","name":"user","type":"address"},{"internalType":"uint256","name":"votesEarned","type":"uint256"},{"internalType":"bool","name":"isMemeSubmission","type":"bool"}],"name":"updateRanking","outputs":[],"stateMutability":"nonpayable","type":"function"},{"inputs":[{"internalType":"address","name":"","type":"address"}],"name":"userRankings","outputs":[{"internalType":"uint256","name":"totalVotes","type":"uint256"},{"internalType":"uint256","name":"totalMemeSubmissions","type":"uint256"},{"internalType":"enum ArtifactRanking.RankLevel","name":"currentRank","type":"uint8"},{"internalType":"uint256","name":"points","type":"uint256"}],"stateMutability":"view","type":"function"}],"evm":{"bytecode":{"linkReferences":{},"object":"608060405234801561001057600080fd5b50610960806100206000396000f3fe608060405234801561001057600080fd5b50600436106100885760003560e01c80638da5cb5b1161005b5780638da5cb5b146100db578063e2f21fda14610115578063ea2639d414610143578063f2fde38b1461018e57600080fd5b80630bfd624a1461008d578063715018a6146100a25780637ca16d79146100aa5780638129fc1c146100d3575b600080fd5b6100a061009b3660046107a5565b6101a1565b005b6100a0610313565b6100bd6100b83660046107ea565b610327565b6040516100ca919061083b565b60405180910390f35b6100a0610419565b7f9016d09d72d40fdae2fd8ceac6b6234c7706214fd39c1cd1e609a0528c199300546040516001600160a01b0390911681526020016100ca565b610135610123366004610849565b60016020526000908152604090205481565b6040519081526020016100ca565b61017e610151366004610871565b60006020819052908152604090208054600182015460028301546003909301549192909160ff9091169084565b6040516100ca949392919061088c565b6100a061019c366004610871565b6105e8565b6001600160a01b03831660009081526020819052604081208054909184918391906101cd9084906108cc565b909155505081156101f0576001810180549060006101ea836108df565b91905055505b604080516080810182528254815260018301546020820152600283015461024f9284919083019060ff16600481111561022b5761022b610803565b600481111561023c5761023c610803565b815260200160038201548152505061062b565b60038201556002810154815460ff9091169061026a90610327565b60028301805460ff1916600183600481111561028857610288610803565b0217905550600282015460ff1660048111156102a6576102a6610803565b8160048111156102b8576102b8610803565b1461030c5760028201546040516001600160a01b038716917f92311c29c5351c292c91a1ea092d577ba13f58d8a501eee46dd0ce3c3b5b5d4b9161030391859160ff909116906108f8565b60405180910390a25b5050505050565b61031b61065b565b61032560006106b6565b565b6004600090815260016020527fedc95719e9a3b28dd8e80877cb5880a9be7de1a13fc8b05e7999683b6b56764354821061036357506004919050565b600360005260016020527f7dfe757ecd65cbd7922a9c0161e935dd7fdbcc0e999689c7d31633896b1fc60b54821061039d57506003919050565b600260005260016020527fd9d16d34ffb15ba3a3d852f0d403e2ce1d691fb54de27ac87cd2f993f3ec330f5482106103d757506002919050565b600160008190526020527fcc69885fda6bcc1a4ace058b4a62bf5e179ea78fd58a1ccd71c22cc9b688792f54821061041157506001919050565b506000919050565b7ff0c57e16840df040f15088dc2f81fe391c3923bec73e23a9662efc9c229c6a008054600160401b810460ff16159067ffffffffffffffff1660008115801561045f5750825b905060008267ffffffffffffffff16600114801561047c5750303b155b90508115801561048a575080155b156104a85760405163f92ee8a960e01b815260040160405180910390fd5b845467ffffffffffffffff1916600117855583156104d257845460ff60401b1916600160401b1785555b6104db33610727565b600160205260007fa6eef7e35abe7026729641147f7915573c7e97b47efa546f5f6e3230263bcb4981905560327fcc69885fda6bcc1a4ace058b4a62bf5e179ea78fd58a1ccd71c22cc9b688792f5560c87fd9d16d34ffb15ba3a3d852f0d403e2ce1d691fb54de27ac87cd2f993f3ec330f556101f47f7dfe757ecd65cbd7922a9c0161e935dd7fdbcc0e999689c7d31633896b1fc60b55600490526103e87fedc95719e9a3b28dd8e80877cb5880a9be7de1a13fc8b05e7999683b6b56764355831561030c57845460ff60401b19168555604051600181527fc7f505b2f371ae2175ee4913f4499e1f2633a7b5936321eed1cdaeb6115181d29060200160405180910390a15050505050565b6105f061065b565b6001600160a01b03811661061f57604051631e4fbdf760e01b8152600060048201526024015b60405180910390fd5b610628816106b6565b50565b60008160200151603261063e9190610913565b825161064b90600a610913565b61065591906108cc565b92915050565b3361068d7f9016d09d72d40fdae2fd8ceac6b6234c7706214fd39c1cd1e609a0528c199300546001600160a01b031690565b6001600160a01b0316146103255760405163118cdaa760e01b8152336004820152602401610616565b7f9016d09d72d40fdae2fd8ceac6b6234c7706214fd39c1cd1e609a0528c19930080546001600160a01b031981166001600160a01b03848116918217845560405192169182907f8be0079c531659141344cd1fd0a4f28419497f9722a3daafe3b4186f6b6457e090600090a3505050565b61072f610738565b61062881610781565b7ff0c57e16840df040f15088dc2f81fe391c3923bec73e23a9662efc9c229c6a0054600160401b900460ff1661032557604051631afcd79f60e31b815260040160405180910390fd5b6105f0610738565b80356001600160a01b03811681146107a057600080fd5b919050565b6000806000606084860312156107ba57600080fd5b6107c384610789565b925060208401359150604084013580151581146107df57600080fd5b809150509250925092565b6000602082840312156107fc57600080fd5b5035919050565b634e487b7160e01b600052602160045260246000fd5b6005811061083757634e487b7160e01b600052602160045260246000fd5b9052565b602081016106558284610819565b60006020828403121561085b57600080fd5b81356005811061086a57600080fd5b9392505050565b60006020828403121561088357600080fd5b61086a82610789565b84815260208101849052608081016108a76040830185610819565b82606083015295945050505050565b634e487b7160e01b600052601160045260246000fd5b80820180821115610655576106556108b6565b6000600182016108f1576108f16108b6565b5060010190565b604081016109068285610819565b61086a6020830184610819565b8082028115828204841417610655576106556108b656fea264697066735822122001a1b38f2bff48aa49391095abe3b3ffab76e9f45ecf1e249b03068e07eddf6264736f6c63430008140033","opcodes":"PUSH1 0x80 PUSH1 0x40 MSTORE CALLVALUE DUP1 ISZERO PUSH2 0x10 JUMPI PUSH1 0x0 DUP1 REVERT JUMPDEST POP PUSH2 0x960 DUP1 PUSH2 0x20 PUSH1 0x0 CODECOPY PUSH1 0x0 RETURN INVALID PUSH1 0x80 PUSH1 0x40 MSTORE CALLVALUE DUP1 ISZERO PUSH2 0x10 JUMPI PUSH1 0x0 DUP1 REVERT JUMPDEST POP PUSH1 0x4 CALLDATASIZE LT PUSH2 0x88 JUMPI PUSH1 0x0 CALLDATALOAD PUSH1 0xE0 SHR DUP1 PUSH4 0x8DA5CB5B GT PUSH2 0x5B JUMPI DUP1 PUSH4 0x8DA5CB5B EQ PUSH2 0xDB JUMPI DUP1 PUSH4 0xE2F21FDA EQ PUSH2 0x115 JUMPI DUP1 PUSH4 0xEA2639D4 EQ PUSH2 0x143 JUMPI DUP1 PUSH4 0xF2FDE38B EQ PUSH2 0x18E JUMPI PUSH1 0x0 DUP1 REVERT JUMPDEST DUP1 PUSH4 0xBFD624A EQ PUSH2 0x8D JUMPI DUP1 PUSH4 0x715018A6 EQ PUSH2 0xA2 JUMPI DUP1 PUSH4 0x7CA16D79 EQ PUSH2 0xAA JUMPI DUP1 PUSH4 0x8129FC1C EQ PUSH2 0xD3 JUMPI JUMPDEST PUSH1 0x0 DUP1 REVERT JUMPDEST PUSH2 0xA0 PUSH2 0x9B CALLDATASIZE PUSH1 0x4 PUSH2 0x7A5 JUMP JUMPDEST PUSH2 0x1A1 JUMP JUMPDEST STOP JUMPDEST PUSH2 0xA0 PUSH2 0x313 JUMP JUMPDEST PUSH2 0xBD PUSH2 0xB8 CALLDATASIZE PUSH1 0x4 PUSH2 0x7EA JUMP JUMPDEST PUSH2 0x327 JUMP JUMPDEST PUSH1 0x40 MLOAD PUSH2 0xCA SWAP2 SWAP1 PUSH2 0x83B JUMP JUMPDEST PUSH1 0x40 MLOAD DUP1 SWAP2 SUB SWAP1 RETURN JUMPDEST PUSH2 0xA0 PUSH2 0x419 JUMP JUMPDEST PUSH32 0x9016D09D72D40FDAE2FD8CEAC6B6234C7706214FD39C1CD1E609A0528C199300 SLOAD PUSH1 0x40 MLOAD PUSH1 0x1 PUSH1 0x1 PUSH1 0xA0 SHL SUB SWAP1 SWAP2 AND DUP2 MSTORE PUSH1 0x20 ADD PUSH2 0xCA JUMP JUMPDEST PUSH2 0x135 PUSH2 0x123 CALLDATASIZE PUSH1 0x4 PUSH2 0x849 JUMP JUMPDEST PUSH1 0x1 PUSH1 0x20 MSTORE PUSH1 0x0 SWAP1 DUP2 MSTORE PUSH1 0x40 SWAP1 KECCAK256 SLOAD DUP2 JUMP JUMPDEST PUSH1 0x40 MLOAD SWAP1 DUP2 MSTORE PUSH1 0x20 ADD PUSH2 0xCA JUMP JUMPDEST PUSH2 0x17E PUSH2 0x151 CALLDATASIZE PUSH1 0x4 PUSH2 0x871 JUMP JUMPDEST PUSH1 0x0 PUSH1 0x20 DUP2 SWAP1 MSTORE SWAP1 DUP2 MSTORE PUSH1 0x40 SWAP1 KECCAK256 DUP1 SLOAD PUSH1 0x1 DUP3 ADD SLOAD PUSH1 0x2 DUP4 ADD SLOAD PUSH1 0x3 SWAP1 SWAP4 ADD SLOAD SWAP2 SWAP3 SWAP1 SWAP2 PUSH1 0xFF SWAP1 SWAP2 AND SWAP1 DUP5 JUMP JUMPDEST PUSH1 0x40 MLOAD PUSH2 0xCA SWAP5 SWAP4 SWAP3 SWAP2 SWAP1 PUSH2 0x88C JUMP JUMPDEST PUSH2 0xA0 PUSH2 0x19C CALLDATASIZE PUSH1 0x4 PUSH2 0x871 JUMP JUMPDEST PUSH2 0x5E8 JUMP JUMPDEST PUSH1 0x1 PUSH1 0x1 PUSH1 0xA0 SHL SUB DUP4 AND PUSH1 0x0 SWAP1 DUP2 MSTORE PUSH1 0x20 DUP2 SWAP1 MSTORE PUSH1 0x40 DUP2 KECCAK256 DUP1 SLOAD SWAP1 SWAP2 DUP5 SWAP2 DUP4 SWAP2 SWAP1 PUSH2 0x1CD SWAP1 DUP5 SWAP1 PUSH2 0x8CC JUMP JUMPDEST SWAP1 SWAP2 SSTORE POP POP DUP2 ISZERO PUSH2 0x1F0 JUMPI PUSH1 0x1 DUP2 ADD DUP1 SLOAD SWAP1 PUSH1 0x0 PUSH2 0x1EA DUP4 PUSH2 0x8DF JUMP JUMPDEST SWAP2 SWAP1 POP SSTORE POP JUMPDEST PUSH1 0x40 DUP1 MLOAD PUSH1 0x80 DUP2 ADD DUP3 MSTORE DUP3 SLOAD DUP2 MSTORE PUSH1 0x1 DUP4 ADD SLOAD PUSH1 0x20 DUP3 ADD MSTORE PUSH1 0x2 DUP4 ADD SLOAD PUSH2 0x24F SWAP3 DUP5 SWAP2 SWAP1 DUP4 ADD SWAP1 PUSH1 0xFF AND PUSH1 0x4 DUP2 GT ISZERO PUSH2 0x22B JUMPI PUSH2 0x22B PUSH2 0x803 JUMP JUMPDEST PUSH1 0x4 DUP2 GT ISZERO PUSH2 0x23C JUMPI PUSH2 0x23C PUSH2 0x803 JUMP JUMPDEST DUP2 MSTORE PUSH1 0x20 ADD PUSH1 0x3 DUP3 ADD SLOAD DUP2 MSTORE POP POP PUSH2 0x62B JUMP JUMPDEST PUSH1 0x3 DUP3 ADD SSTORE PUSH1 0x2 DUP2 ADD SLOAD DUP2 SLOAD PUSH1 0xFF SWAP1 SWAP2 AND SWAP1 PUSH2 0x26A SWAP1 PUSH2 0x327 JUMP JUMPDEST PUSH1 0x2 DUP4 ADD DUP1 SLOAD PUSH1 0xFF NOT AND PUSH1 0x1 DUP4 PUSH1 0x4 DUP2 GT ISZERO PUSH2 0x288 JUMPI PUSH2 0x288 PUSH2 0x803 JUMP JUMPDEST MUL OR SWAP1 SSTORE POP PUSH1 0x2 DUP3 ADD SLOAD PUSH1 0xFF AND PUSH1 0x4 DUP2 GT ISZERO PUSH2 0x2A6 JUMPI PUSH2 0x2A6 PUSH2 0x803 JUMP JUMPDEST DUP2 PUSH1 0x4 DUP2 GT ISZERO PUSH2 0x2B8 JUMPI PUSH2 0x2B8 PUSH2 0x803 JUMP JUMPDEST EQ PUSH2 0x30C JUMPI PUSH1 0x2 DUP3 ADD SLOAD PUSH1 0x40 MLOAD PUSH1 0x1 PUSH1 0x1 PUSH1 0xA0 SHL SUB DUP8 AND SWAP2 PUSH32 0x92311C29C5351C292C91A1EA092D577BA13F58D8A501EEE46DD0CE3C3B5B5D4B SWAP2 PUSH2 0x303 SWAP2 DUP6 SWAP2 PUSH1 0xFF SWAP1 SWAP2 AND SWAP1 PUSH2 0x8F8 JUMP JUMPDEST PUSH1 0x40 MLOAD DUP1 SWAP2 SUB SWAP1 LOG2 JUMPDEST POP POP POP POP POP JUMP JUMPDEST PUSH2 0x31B PUSH2 0x65B JUMP JUMPDEST PUSH2 0x325 PUSH1 0x0 PUSH2 0x6B6 JUMP JUMPDEST JUMP JUMPDEST PUSH1 0x4 PUSH1 0x0 SWAP1 DUP2 MSTORE PUSH1 0x1 PUSH1 0x20 MSTORE PUSH32 0xEDC95719E9A3B28DD8E80877CB5880A9BE7DE1A13FC8B05E7999683B6B567643 SLOAD DUP3 LT PUSH2 0x363 JUMPI POP PUSH1 0x4 SWAP2 SWAP1 POP JUMP JUMPDEST PUSH1 0x3 PUSH1 0x0 MSTORE PUSH1 0x1 PUSH1 0x20 MSTORE PUSH32 0x7DFE757ECD65CBD7922A9C0161E935DD7FDBCC0E999689C7D31633896B1FC60B SLOAD DUP3 LT PUSH2 0x39D JUMPI POP PUSH1 0x3 SWAP2 SWAP1 POP JUMP JUMPDEST PUSH1 0x2 PUSH1 0x0 MSTORE PUSH1 0x1 PUSH1 0x20 MSTORE PUSH32 0xD9D16D34FFB15BA3A3D852F0D403E2CE1D691FB54DE27AC87CD2F993F3EC330F SLOAD DUP3 LT PUSH2 0x3D7 JUMPI POP PUSH1 0x2 SWAP2 SWAP1 POP JUMP JUMPDEST PUSH1 0x1 PUSH1 0x0 DUP2 SWAP1 MSTORE PUSH1 0x20 MSTORE PUSH32 0xCC69885FDA6BCC1A4ACE058B4A62BF5E179EA78FD58A1CCD71C22CC9B688792F SLOAD DUP3 LT PUSH2 0x411 JUMPI POP PUSH1 0x1 SWAP2 SWAP1 POP JUMP JUMPDEST POP PUSH1 0x0 SWAP2 SWAP1 POP JUMP JUMPDEST PUSH32 0xF0C57E16840DF040F15088DC2F81FE391C3923BEC73E23A9662EFC9C229C6A00 DUP1 SLOAD PUSH1 0x1 PUSH1 0x40 SHL DUP2 DIV PUSH1 0xFF AND ISZERO SWAP1 PUSH8 0xFFFFFFFFFFFFFFFF AND PUSH1 0x0 DUP2 ISZERO DUP1 ISZERO PUSH2 0x45F JUMPI POP DUP3 JUMPDEST SWAP1 POP PUSH1 0x0 DUP3 PUSH8 0xFFFFFFFFFFFFFFFF AND PUSH1 0x1 EQ DUP1 ISZERO PUSH2 0x47C JUMPI POP ADDRESS EXTCODESIZE ISZERO JUMPDEST SWAP1 POP DUP2 ISZERO DUP1 ISZERO PUSH2 0x48A JUMPI POP DUP1 ISZERO JUMPDEST ISZERO PUSH2 0x4A8 JUMPI PUSH1 0x40 MLOAD PUSH4 0xF92EE8A9 PUSH1 0xE0 SHL DUP2 MSTORE PUSH1 0x4 ADD PUSH1 0x40 MLOAD DUP1 SWAP2 SUB SWAP1 REVERT JUMPDEST DUP5 SLOAD PUSH8 0xFFFFFFFFFFFFFFFF NOT AND PUSH1 0x1 OR DUP6 SSTORE DUP4 ISZERO PUSH2 0x4D2 JUMPI DUP5 SLOAD PUSH1 0xFF PUSH1 0x40 SHL NOT AND PUSH1 0x1 PUSH1 0x40 SHL OR DUP6 SSTORE JUMPDEST PUSH2 0x4DB CALLER PUSH2 0x727 JUMP JUMPDEST PUSH1 0x1 PUSH1 0x20 MSTORE PUSH1 0x0 PUSH32 0xA6EEF7E35ABE7026729641147F7915573C7E97B47EFA546F5F6E3230263BCB49 DUP2 SWAP1 SSTORE PUSH1 0x32 PUSH32 0xCC69885FDA6BCC1A4ACE058B4A62BF5E179EA78FD58A1CCD71C22CC9B688792F SSTORE PUSH1 0xC8 PUSH32 0xD9D16D34FFB15BA3A3D852F0D403E2CE1D691FB54DE27AC87CD2F993F3EC330F SSTORE PUSH2 0x1F4 PUSH32 0x7DFE757ECD65CBD7922A9C0161E935DD7FDBCC0E999689C7D31633896B1FC60B SSTORE PUSH1 0x4 SWAP1 MSTORE PUSH2 0x3E8 PUSH32 0xEDC95719E9A3B28DD8E80877CB5880A9BE7DE1A13FC8B05E7999683B6B567643 SSTORE DUP4 ISZERO PUSH2 0x30C JUMPI DUP5 SLOAD PUSH1 0xFF PUSH1 0x40 SHL NOT AND DUP6 SSTORE PUSH1 0x40 MLOAD PUSH1 0x1 DUP2 MSTORE PUSH32 0xC7F505B2F371AE2175EE4913F4499E1F2633A7B5936321EED1CDAEB6115181D2 SWAP1 PUSH1 0x20 ADD PUSH1 0x40 MLOAD DUP1 SWAP2 SUB SWAP1 LOG1 POP POP POP POP POP JUMP JUMPDEST PUSH2 0x5F0 PUSH2 0x65B JUMP JUMPDEST PUSH1 0x1 PUSH1 0x1 PUSH1 0xA0 SHL SUB DUP2 AND PUSH2 0x61F JUMPI PUSH1 0x40 MLOAD PUSH4 0x1E4FBDF7 PUSH1 0xE0 SHL DUP2 MSTORE PUSH1 0x0 PUSH1 0x4 DUP3 ADD MSTORE PUSH1 0x24 ADD JUMPDEST PUSH1 0x40 MLOAD DUP1 SWAP2 SUB SWAP1 REVERT JUMPDEST PUSH2 0x628 DUP2 PUSH2 0x6B6 JUMP JUMPDEST POP JUMP JUMPDEST PUSH1 0x0 DUP2 PUSH1 0x20 ADD MLOAD PUSH1 0x32 PUSH2 0x63E SWAP2 SWAP1 PUSH2 0x913 JUMP JUMPDEST DUP3 MLOAD PUSH2 0x64B SWAP1 PUSH1 0xA PUSH2 0x913 JUMP JUMPDEST PUSH2 0x655 SWAP2 SWAP1 PUSH2 0x8CC JUMP JUMPDEST SWAP3 SWAP2 POP POP JUMP JUMPDEST CALLER PUSH2 0x68D PUSH32 0x9016D09D72D40FDAE2FD8CEAC6B6234C7706214FD39C1CD1E609A0528C199300 SLOAD PUSH1 0x1 PUSH1 0x1 PUSH1 0xA0 SHL SUB AND SWAP1 JUMP JUMPDEST PUSH1 0x1 PUSH1 0x1 PUSH1 0xA0 SHL SUB AND EQ PUSH2 0x325 JUMPI PUSH1 0x40 MLOAD PUSH4 0x118CDAA7 PUSH1 0xE0 SHL DUP2 MSTORE CALLER PUSH1 0x4 DUP3 ADD MSTORE PUSH1 0x24 ADD PUSH2 0x616 JUMP JUMPDEST PUSH32 0x9016D09D72D40FDAE2FD8CEAC6B6234C7706214FD39C1CD1E609A0528C199300 DUP1 SLOAD PUSH1 0x1 PUSH1 0x1 PUSH1 0xA0 SHL SUB NOT DUP2 AND PUSH1 0x1 PUSH1 0x1 PUSH1 0xA0 SHL SUB DUP5 DUP2 AND SWAP2 DUP3 OR DUP5 SSTORE PUSH1 0x40 MLOAD SWAP3 AND SWAP2 DUP3 SWAP1 PUSH32 0x8BE0079C531659141344CD1FD0A4F28419497F9722A3DAAFE3B4186F6B6457E0 SWAP1 PUSH1 0x0 SWAP1 LOG3 POP POP POP JUMP JUMPDEST PUSH2 0x72F PUSH2 0x738 JUMP JUMPDEST PUSH2 0x628 DUP2 PUSH2 0x781 JUMP JUMPDEST PUSH32 0xF0C57E16840DF040F15088DC2F81FE391C3923BEC73E23A9662EFC9C229C6A00 SLOAD PUSH1 0x1 PUSH1 0x40 SHL SWAP1 DIV PUSH1 0xFF AND PUSH2 0x325 JUMPI PUSH1 0x40 MLOAD PUSH4 0x1AFCD79F PUSH1 0xE3 SHL DUP2 MSTORE PUSH1 0x4 ADD PUSH1 0x40 MLOAD DUP1 SWAP2 SUB SWAP1 REVERT JUMPDEST PUSH2 0x5F0 PUSH2 0x738 JUMP JUMPDEST DUP1 CALLDATALOAD PUSH1 0x1 PUSH1 0x1 PUSH1 0xA0 SHL SUB DUP2 AND DUP2 EQ PUSH2 0x7A0 JUMPI PUSH1 0x0 DUP1 REVERT JUMPDEST SWAP2 SWAP1 POP JUMP JUMPDEST PUSH1 0x0 DUP1 PUSH1 0x0 PUSH1 0x60 DUP5 DUP7 SUB SLT ISZERO PUSH2 0x7BA JUMPI PUSH1 0x0 DUP1 REVERT JUMPDEST PUSH2 0x7C3 DUP5 PUSH2 0x789 JUMP JUMPDEST SWAP3 POP PUSH1 0x20 DUP5 ADD CALLDATALOAD SWAP2 POP PUSH1 0x40 DUP5 ADD CALLDATALOAD DUP1 ISZERO ISZERO DUP2 EQ PUSH2 0x7DF JUMPI PUSH1 0x0 DUP1 REVERT JUMPDEST DUP1 SWAP2 POP POP SWAP3 POP SWAP3 POP SWAP3 JUMP JUMPDEST PUSH1 0x0 PUSH1 0x20 DUP3 DUP5 SUB SLT ISZERO PUSH2 0x7FC JUMPI PUSH1 0x0 DUP1 REVERT JUMPDEST POP CALLDATALOAD SWAP2 SWAP1 POP JUMP JUMPDEST PUSH4 0x4E487B71 PUSH1 0xE0 SHL PUSH1 0x0 MSTORE PUSH1 0x21 PUSH1 0x4 MSTORE PUSH1 0x24 PUSH1 0x0 REVERT JUMPDEST PUSH1 0x5 DUP2 LT PUSH2 0x837 JUMPI PUSH4 0x4E487B71 PUSH1 0xE0 SHL PUSH1 0x0 MSTORE PUSH1 0x21 PUSH1 0x4 MSTORE PUSH1 0x24 PUSH1 0x0 REVERT JUMPDEST SWAP1 MSTORE JUMP JUMPDEST PUSH1 0x20 DUP2 ADD PUSH2 0x655 DUP3 DUP5 PUSH2 0x819 JUMP JUMPDEST PUSH1 0x0 PUSH1 0x20 DUP3 DUP5 SUB SLT ISZERO PUSH2 0x85B JUMPI PUSH1 0x0 DUP1 REVERT JUMPDEST DUP2 CALLDATALOAD PUSH1 0x5 DUP2 LT PUSH2 0x86A JUMPI PUSH1 0x0 DUP1 REVERT JUMPDEST SWAP4 SWAP3 POP POP POP JUMP JUMPDEST PUSH1 0x0 PUSH1 0x20 DUP3 DUP5 SUB SLT ISZERO PUSH2 0x883 JUMPI PUSH1 0x0 DUP1 REVERT JUMPDEST PUSH2 0x86A DUP3 PUSH2 0x789 JUMP JUMPDEST DUP5 DUP2 MSTORE PUSH1 0x20 DUP2 ADD DUP5 SWAP1 MSTORE PUSH1 0x80 DUP2 ADD PUSH2 0x8A7 PUSH1 0x40 DUP4 ADD DUP6 PUSH2 0x819 JUMP JUMPDEST DUP3 PUSH1 0x60 DUP4 ADD MSTORE SWAP6 SWAP5 POP POP POP POP POP JUMP JUMPDEST PUSH4 0x4E487B71 PUSH1 0xE0 SHL PUSH1 0x0 MSTORE PUSH1 0x11 PUSH1 0x4 MSTORE PUSH1 0x24 PUSH1 0x0 REVERT JUMPDEST DUP1 DUP3 ADD DUP1 DUP3 GT ISZERO PUSH2 0x655 JUMPI PUSH2 0x655 PUSH2 0x8B6 JUMP JUMPDEST PUSH1 0x0 PUSH1 0x1 DUP3 ADD PUSH2 0x8F1 JUMPI PUSH2 0x8F1 PUSH2 0x8B6 JUMP JUMPDEST POP PUSH1 0x1 ADD SWAP1 JUMP JUMPDEST PUSH1 0x40 DUP2 ADD PUSH2 0x906 DUP3 DUP6 PUSH2 0x819 JUMP JUMPDEST PUSH2 0x86A PUSH1 0x20 DUP4 ADD DUP5 PUSH2 0x819 JUMP JUMPDEST DUP1 DUP3 MUL DUP2 ISZERO DUP3 DUP3 DIV DUP5 EQ OR PUSH2 0x655 JUMPI PUSH2 0x655 PUSH2 0x8B6 JUMP INVALID LOG2 PUSH5 0x6970667358 0x22 SLT KECCAK256 ADD LOG1 0xB3 DUP16 0x2B SELFDESTRUCT BASEFEE 0xAA 0x49 CODECOPY LT SWAP6 0xAB 0xE3 0xB3 SELFDESTRUCT 0xAB PUSH23 0xE9F45ECF1E249B03068E07EDDF6264736F6C6343000814 STOP CALLER "},"methodIdentifiers":{"calculateRankLevel(uint256)":"7ca16d79","initialize()":"8129fc1c","owner()":"8da5cb5b","rankThresholds(uint8)":"e2f21fda","renounceOwnership()":"715018a6","transferOwnership(address)":"f2fde38b","updateRanking(address,uint256,bool)":"0bfd624a","userRankings(address)":"ea2639d4"}},"storageLayout":{"storage":[{"astId":3529,"contract":"contracts/ArtixRanking.sol:ArtifactRanking","label":"userRankings","offset":0,"slot":"0","type":"t_mapping(t_address,t_struct(UserRanking)3524_storage)"},{"astId":3534,"contract":"contracts/ArtixRanking.sol:ArtifactRanking","label":"rankThresholds","offset":0,"slot":"1","type":"t_mapping(t_enum(RankLevel)3514,t_uint256)"}],"types":{"t_address":{"encoding":"inplace","label":"address","numberOfBytes":"20"},"t_enum(RankLevel)3514":{"encoding":"inplace","label":"enum ArtifactRanking.RankLevel","numberOfBytes":"1"},"t_mapping(t_address,t_struct(UserRanking)3524_storage)":{"encoding":"mapping","key":"t_address","label":"mapping(address => struct ArtifactRanking.UserRanking)","numberOfBytes":"32","value":"t_struct(UserRanking)3524_storage"},"t_mapping(t_enum(RankLevel)3514,t_uint256)":{"encoding":"mapping","key":"t_enum(RankLevel)3514","label":"mapping(enum ArtifactRanking.RankLevel => uint256)","numberOfBytes":"32","value":"t_uint256"},"t_struct(UserRanking)3524_storage":{"encoding":"inplace","label":"struct ArtifactRanking.UserRanking","members":[{"astId":3516,"contract":"contracts/ArtixRanking.sol:ArtifactRanking","label":"totalVotes","offset":0,"slot":"0","type":"t_uint256"},{"astId":3518,"contract":"contracts/ArtixRanking.sol:ArtifactRanking","label":"totalMemeSubmissions","offset":0,"slot":"1","type":"t_uint256"},{"astId":3521,"contract":"contracts/ArtixRanking.sol:ArtifactRanking","label":"currentRank","offset":0,"slot":"2","type":"t_enum(RankLevel)3514"},{"astId":3523,"contract":"contracts/ArtixRanking.sol:ArtifactRanking","label":"points","offset":0,"slot":"3","type":"t_uint256"}],"numberOfBytes":"128"},"t_uint256":{"encoding":"inplace","label":"uint256","numberOfBytes":"32"}}}}}}